:100000000C940D040C941F040C941F040C941F04F6
:100010000C941F040C941F040C941F040C941F04D4
:100020000C941F040C9485040C941F040C941F045E
:100030000C941F040C941F040C941F040C941F04B4
:100040000C941F040C941F040C941F040C941F04A4
:100050000C941F0407070707070707070707070789
:100060000707070707070707070707070707070720
:100070000707070707070707070707070707070710
:100080000707070707070707070707070707070700
:1000900007070707070707070707070707070707F0
:1000A00007070707070707070707070707070707E0
:1000B00007070707070707070707070707070707D0
:1000C00007070707070707070707070707070707C0
:1000D00007070707070707070707070707070707B0
:1000E00007070707070707070707070707070707A0
:1000F00007070707070707070707020702020202A9
:100100000202070707070707050505050705050597
:10011000070505050705050507070707070707077B
:10012000070505050707070707070707070207026F
:100130000707070707070707070707050707070751
:10014000050707070507050705070507070505054F
:100150000505070705070507070505050505070741
:10016000020702070707070707070707070705072B
:100170000707070507070705070507050705070719
:100180000507070707070705070507070507070707
:1001900007070702070207070707070707070707F9
:1001A00007050707070705070707050705070507E9
:1001B00005070705070707070707050705070705D9
:1001C00007070707070702070207070707070707C9
:1001D00007070707050707070705070707050705B7
:1001E00007050705070705070707070707050705A9
:1001F000070705070707070707020702070707079B
:100200000707070707070705070707070507070782
:100210000507050705070507070507070707070778
:10022000050705070705070707070707020702076E
:100230000707070707070707070705070707070552
:10024000070707050705070505050707050707074A
:10025000070707050505070705070707070707023B
:100260000702070707070707070707070705050529
:10027000050705070707050705070505070707051C
:100280000505050707070505070707050505050710
:10029000070702070207020202020707070707070C
:1002A00007070705070507070705070507050707E8
:1002B00007070507070707070705070707070507D4
:1002C00007070707070207020707070702070707CD
:1002D00007070707070705070507070705070507B6
:1002E00005050707070507070707070705050707A8
:1002F00007050707070707020207020707070702A4
:100300000707070707070707070507050707070583
:100310000705070505070707050707070707070577
:100320000507070705070707070702020702070770
:100330000707020707070707070707070507050756
:100340000707050705070507050707050707070747
:10035000070705070507070507070707070202073D
:100360000207070707020707070707070707070529
:100370000705070707050705070507050707050719
:100380000707070707050705070705070707070703
:1003900007020702070707070207070707070707FC
:1003A00007070507050707070507050705070705E9
:1003B00007050707070707070507070507050707D5
:1003C00007070707020702020202020207070707E0
:1003D00007070505050507050505070505050705C3
:1003E00007070507050505050505070507070507AF
:1003F0000505050505050707070707070707070799
:10040000070707070707070707070707070707077C
:10041000070707070707070707070707070707076C
:10042000070707070707070707070707070707075C
:10043000070707070707070707070707070707074C
:10044000070707070707070707070707070707073C
:10045000070707070707070707070707070707072C
:10046000070707070707070707070707070707071C
:10047000070707070707070707070707070707070C
:1004800007070707070707070707070707070707FC
:10049000070702070202020202020707070707070F
:1004A00007070707070707070707070707070707DC
:1004B00007070707070707070707070707070707CC
:1004C00007070707070207020707070707070707C6
:1004D00007070707070707070707070707070707AC
:1004E000070707070707070707070707070707079C
:1004F0000707070707070707020702070707070796
:10050000070707070707070707070707070707077B
:10051000070707070707070707070707070707076B
:100520000707070707070707070707020702070765
:10053000070707070707070707070707070707074B
:10054000070707070707070707070707070707073B
:100550000707070707070707070707070707020730
:100560000207070707070707070707070707070720
:10057000070707070707070707070707070707070B
:100580000707070707070707070707070707020700
:1005900007020702070707070707070707070707F5
:1005A00007070707070707070707070707070707DB
:1005B00007070707070707070707070707070707CB
:1005C00007020707020702070707070707070707CA
:1005D00007070707070707070707070707070707AB
:1005E000070707070707070707070707070707079B
:1005F000070707070207070207020707070707079A
:10060000070707070707070707070707070707077A
:10061000070707070707070707070707070707076A
:100620000707070707070707020702070207020273
:100630000202070707070707070707070707070754
:10064000070707070707070707070707070707073A
:100650000707070707070707070707020702070239
:10066000070707070207070707070707070707071F
:10067000070707070707070707070707070707070A
:1006800007070707070707070707070707070702FF
:1006900002070207070707020707070707070707F9
:1006A00007070707070707070707070707070707DA
:1006B00007070707070707070707070707070707CA
:1006C00007070202070207070707020707070707CE
:1006D00007070707070707070707070707070707AA
:1006E000070707070707070707070707070707079A
:1006F000070707070702020702070707070207079E
:100700000707070707070707070707070707070779
:100710000707070707070707070707070707070769
:100720000707070707070707070207020202020277
:10073000020707070707070707070707070707074E
:100740000707070707070707070707070707070739
:100750000707070707070707070707070707070729
:100760000707070707070707070707070707070719
:100770000707070707070707070707070707070709
:1007800007070707070707070707070707070707F9
:1007900007070707070707070707070707070707E9
:1007A00007070707070707070707070707070707D9
:1007B00007070707070707070707070707070707C9
:1007C00007070707070707070707070707070707B9
:1007D00007070707070707070707070707070707A9
:1007E0000707070707070707070707070707070799
:1007F0000707070707070707070707070707070789
:100800000707070707070707070707070707070778
:100810000707070707070707070011241FBECFE5D3
:10082000D4E0DEBFCDBF10E0A0E6B0E001C01D9275
:10083000AC36B107E1F70E940A050C94B7060C9498
:10084000000081B3806B81BB979A949A959A8FEF41
:1008500087BB8FE78ABB08959FEF94BB68BB8BBBB8
:10086000949A959A979845BB9498949A14BA979AA3
:100870000895AF92BF92CF92DF92EF92FF920F93C3
:100880001F93CF93DF93A82E162FB72E6A017901FD
:10089000282F392FE9010BC08C2F612F402F0E9488
:1008A0002C048C2F6E2D402F0E942C042196CC16E8
:1008B000DD0694F7812F9B2D9C01E9010BC08A2D49
:1008C0006C2F402F0E942C048C2D6C2F402F0E94E7
:1008D0002C042196EC16FD0694F7DF91CF911F9121
:1008E0000F91FF90EF90DF90CF90BF90AF90089561
:1008F00014BA88BB80709F779BBB949A959A9798FF
:100900009598959A979A80E008951F920F920FB646
:100910000F9211242F938F939F9383EC82BF80912A
:100920006400909165000196909365008093640047
:1009300080916400909165008D509240E1F4109296
:1009400065001092640080916000909161000196B2
:1009500090936100809360008091600090916100AD
:1009600080FD03C082E090E002C081E090E09093BF
:1009700069008093680080916400909165000A97F7
:1009800031F080916400909165000B9721F482B35F
:10099000837F82BB02C0929A939880916400909169
:1009A00065008D97B0F483E090E090936B008093A6
:1009B0006A000000000000000000000000000000CD
:1009C0000000000000000000000000000000000027
:1009D00018C08091680090916900019731F482E01D
:1009E00090E090936B0080936A00809168009091F2
:1009F0006900029731F484E090E090936B0080935B
:100A00006A00939A9F918F912F910F900FBE0F9034
:100A10001F9018952F923F924F925F926F927F9204
:100A20008F929F92AF92BF92CF92DF92EF92FF92FE
:100A30000F931F93DF93CF9300D00F92CDB7DEB704
:100A400081E090E090936100809360009093690052
:100A50008093680010926300109262001092670009
:100A6000109266000E94210410E014C0812F6E2DA8
:100A700047E00E942C040894E11CF11C20E0E216DF
:100A800021E0F20699F71F5F143321F404E510E02A
:100A900090E01AC0EE24FF24E9CFF801EE0DFF1D0F
:100AA000E4918E2D692F4E2F99830E942C04089477
:100AB000E11CF11C998182E3E816F10471F70E5CE8
:100AC0001F4F9F5F983719F0EE24FF24E6CF13BE27
:100AD00083EC82BF82E083BF81E089BF939A8B9AC7
:100AE000929A8A9A899A85B78F7485BF7894772469
:100AF000739492E0692E83E0582E04E0402E15E0B6
:100B0000312EB6E0FB2EA7E0EA2EF8E0DF2EE9E07A
:100B1000CE2E7AE0B72E6BE0A62E5CE0952E4DE04F
:100B2000842E7EE0EFE0F0E1A1E1B2E113E104E127
:100B300035E1232E36E147E158E169E185B780646C
:100B400085BF889585B78F7B85BF80916A0090911E
:100B50006B00029709F0FAC014BA8091640090917A
:100B6000650096958795865188BB1BBA949A959A8D
:100B70009798919895980000959A7BBA959800005F
:100B8000959A6BBA95980000959A5BBA9598000073
:100B9000959A4BBA95980000959A3BBA95980000A3
:100BA000959AFBBA95980000959AEBBA9598000033
:100BB000959ADBBA95980000959ACBBA9598000063
:100BC000959ABBBA95980000959AABBA9598000093
:100BD000959A9BBA95980000959A8BBA95980000C3
:100BE000959A7BBB95980000959AEBBB9598000071
:100BF000959AFBBB95980000959AABBB9598000021
:100C0000959ABBBB95980000959A1BBB95980000E0
:100C1000959A0BBB95980000959A2BBA9598000071
:100C2000959A3BBB95980000959A4BBB9598000010
:100C3000959A5BBB95980000959A6BBB95980000C0
:100C4000959A8AE18BBB95980000959A8BE18BBBB6
:100C500095980000959A8CE18BBB95980000959A29
:100C60008DE18BBB95980000959A8EE18BBB959892
:100C70000000959A8FE18BBB95980000959A80E2D1
:100C80008BBB95980000959A81E28BBB95980000EC
:100C9000959A82E28BBB95980000959A83E28BBB74
:100CA00095980000959A84E28BBB95980000959AE0
:100CB00085E28BBB95980000959A86E28BBB959850
:100CC0000000959A87E28BBB95980000959A88E280
:100CD0008BBB95980000959A89E28BBB9598000094
:100CE000959A8AE28BBB95980000959A8BE28BBB14
:100CF00095980000959A8CE28BBB95980000959A88
:100D00008DE28BBB95980000959A8EE28BBB9598EF
:100D10000000959A8FE28BBB95980000959A80E32E
:100D20008BBB95980000959A81E38BBB959800004A
:100D3000959A82E38BBB95980000959A83E38BBBD1
:100D400095980000959A979A919AF8CE80916A00AA
:100D500090916B00049709F0F1CE8091640090911E
:100D600065008C50924009F4E9CEF7CFE7CEF894B5
:020D7000FFCFB3
:00000001FF
