:100000000C94D4050C94E6050C94E6050C94E605D6
:100010000C94E6050C94E6050C94E6050C94E605B4
:100020000C94E6050C944C060C94E6050C94E6053D
:100030000C94E6050C94E6050C94E6050C94E60594
:100040000C94E6050C94E6050C94E6050C94E60584
:100050000C94E60500000000000000000000000015
:100060000000000000000000000000000000000090
:100070000000000000000000000000000000000080
:100080000000000000000000000000000000000070
:100090000000000000000000000000000000000060
:1000A0000000000000000000000000000000000050
:1000B0000000000000000000000000000000000040
:1000C0000000000000000000000000000000000030
:1000D0000000000000000000000000000000000020
:1000E0000000000000000000000000000000000010
:1000F0000000000000000000000000000000000000
:1001000000000000000000000000000000000000EF
:1001100000000000000000000000000000000000DF
:1001200000000000000000000000000000000000CF
:1001300000000000000000000000000000000000BF
:1001400000000000000000000000000000000000AF
:10015000000000000000000000000000000000009F
:10016000000000000000000000000000000000008F
:10017000000000000000000000000000000000007F
:10018000000000000000000000000000000000006F
:10019000000000000000000000000000000000005F
:1001A000000000000000000000000000000000004F
:1001B0000000000000020202020002000200000033
:1001C000000200020202020202000000050505050D
:1001D00000050505000505050005050500000000F2
:1001E0000000000000000002000002000200020007
:1001F00000000002000200000000000000000500F6
:1002000000000005000000050005000500050000D5
:1002100005050505000000000002000002000200C4
:1002200002020000000200020000000000000000C6
:1002300005000000000500000005000500050005A0
:1002400000000500000000000000000200000200A5
:100250000200020200000002000200000000000094
:100260000000050000000005000000050005000575
:100270000005000005000000000000000002000072
:100280000200020002020000000200020000000062
:10029000000000000500000000050000000500054A
:1002A000000500050000050000000000000000023D
:1002B0000000020002000200020000020002000032
:1002C000000000000000050000000005000000051F
:1002D000000500050005000005000000000000000A
:1002E0000002000002000200020002000002000200
:1002F00000000000000000000500000000050000F4
:1003000000050005000505050000050000000000CF
:1003100000000002000002000200020002000002D1
:1003200000020000000000000000050505050005B2
:100330000000000500050005050000000505050595
:10034000000000000002020202000200020000029F
:10035000000200020002020202000000000000058C
:100360000005000000050005000500000000050074
:100370000000000000000002000000000200020077
:100380000002000200020000000002000000000065
:10039000000500050000000500050005050000003F
:1003A0000500000000000000000200000000020044
:1003B0000200000002020002000000000200000033
:1003C000000000050005000000050005000505000F
:1003D0000000050000000000000000020000000016
:1003E0000200020000000202000200000000020001
:1003F00000000000000500050000000500050005E4
:1004000000050000050000000000000000020000E0
:1004100000000200020000000202000200000000D2
:1004200002000000000000050005000000050005B6
:1004300000050005000005000000000000000002AB
:1004400000000000020002000000000200020000A4
:10045000000002000000000000050005000000058B
:100460000005000500000500050000000000000078
:100470000002000000000200020000000002000272
:10048000020202020200000005050505000505053F
:10049000000505050005000005000505050500002F
:1004A000000000000000000000000000000000004C
:1004B000000000000000000000000000000000003C
:1004C000000000000000000000000000000000002C
:1004D000000000000000000000000000000000001C
:1004E000000000000000000000000000000000000C
:1004F00000000000000000000000000000000000FC
:1005000000000000000000000000000000000000EB
:1005100000000000000000000000000000000000DB
:1005200000000000000000000000000000000000CB
:1005300000000000000000000002020202000202AF
:100540000200020000000002000202020202020099
:10055000000000000000000000000000000000009B
:100560000000000000000000000000020000020087
:100570000200020002000000000200020000000071
:10058000000000000000000000000000000000006B
:100590000000000000000000000000000002000059
:1005A000020002000200020200000002000200003D
:1005B000000000000000000000000000000000003B
:1005C0000000000000000000000000000000000229
:1005D000000002000200020002020000000200020D
:1005E000000000000000000000000000000000000B
:1005F00000000000000000000000000000000000FB
:1006000000020000020002000200020200000002DC
:1006100000020000000000000000000000000000D8
:1006200000000000000000000000000000000000CA
:1006300000000002000002000200020002000200AE
:1006400000020002000000000000000000000000A6
:10065000000000000000000000000000000000009A
:100660000000000000020000020002000200020080
:100670000200000200020000000000000000000074
:10068000000000000000000000000000000000006A
:10069000000000000000000202020200020002004E
:1006A0000200020000020002000000000000000042
:1006B000000000000000000000000000000000003A
:1006C0000000000000000000000200000000020026
:1006D0000200020000020002000200020202020008
:1006E000000000000000000000000000000000000A
:1006F00000000000000000000000000200000000F8
:1007000002000200020000020002000200000000DD
:1007100002000000000000000000000000000000D7
:1007200000000000000000000000000000020000C7
:1007300000000200020002000000020200020000AD
:1007400000000200000000000000000000000000A7
:100750000000000000000000000000000000000297
:10076000000000000200020002000000020200027D
:100770000000000002000000000000000000000077
:100780000000000000000000000000000000000069
:10079000000200000000020002000200000002024D
:1007A0000002000000000200000000000000000045
:1007B0000000000000000000000000000000000039
:1007C000000000020000000002020200020000001F
:1007D000000200020202020202000000000000000B
:1007E0000000000000000000000000000000000009
:1007F00000000000000000000000000000000000F9
:1008000000000000000000000000000000000000E8
:1008100000000000000000000000000000000000D8
:1008200000000000000000000000000000000000C8
:1008300000000101000000010000010001000000B3
:1008400000010100000000010100000000010100A2
:100850000000000101000000000101000000000193
:100860000100000000010100000000010100000083
:100870000001000100000100000001010000000073
:100880000000000000000100000000010100000065
:100890000001010000000100010000000000010053
:1008A0000000000001000000000001000000000046
:1008B0000100000000000100000000000100000035
:1008C0000000010000000000010000000101010122
:1008D0000101000000000000000000000000000016
:1008E0000000000001010101010101000000000100
:1008F00001000000000101000000000100000000F4
:1009000000010000000000010101010101010100DE
:1009100000000000010000000000010000000000D5
:1009200001000000000001010101010100000000C0
:1009300000000101010101010000000000010000B0
:1009400000000001000000000001000000000001A4
:100950000000000000010000000000010001010192
:100960000101000000000001000000000001000083
:100970000000000100000000000100000000000174
:10098000000000000001010101010101010000005F
:100990000000010000000100010000000100010052
:1009A0000000010001000000010001000000010042
:1009B000010000000100010101010101000000002F
:1009C0000100000000000100000000000100000024
:1009D0000000010000000000010000000000010014
:1009E0000000000000000101010101010100000000
:1009F00000000100000000000100000000000100F4
:100A000000000000010000000000010000000000E4
:100A100001010101010000000000010000000000D0
:100A200001000000000001000000000001000000C3
:100A300000000100010101010100000000000000B0
:100A4000010101010101010000000000010000009E
:100A50000000010000000000010000000000010093
:100A60000000000001000000000001000000000084
:100A7000010101010101010000000001010000006D
:100A8000000101000000000101000000000101015F
:100A9000010101010000000000000101010101014C
:100AA0000000000000010000000001000000000044
:100AB0000100000000000100000000010000000033
:100AC0000001000000000001000000000100000023
:100AD0000000010000000001000000000001000013
:100AE0000000000100000000010000000000010003
:100AF00000000000010101010101010000000001EE
:100B000001000000000101000000000101000000E0
:100B100000010100000000010100000000010101CE
:100B200001010101010000000001010000000001BD
:100B300001000000000101000000000101000000B0
:100B4000000101000000000101010101010101019A
:100B5000010101010100000000010100000000018D
:100B60000100000000010100000000010100000080
:100B7000000101000000000101010101010100006C
:100B80000000000100000000000100000000000162
:100B90000000000000010000000000010000000053
:100BA000000100000000000111241FBECFE5D4E0C9
:100BB000DEBFCDBF10E0A0E6B0E001C01D92AC36B4
:100BC000B107E1F70E94D1060C949F090C94000034
:100BD00081B3806B81BB979A949A959A8FEF87BB6C
:100BE0008FE78ABB08959FEF94BB68BB8BBB949A39
:100BF000959A979845BB9498949A14BA979A0895A1
:100C0000AF92BF92CF92DF92EF92FF920F931F931A
:100C1000CF93DF93A82E162FB72E6A017901282FC4
:100C2000392FE9010BC08C2F612F402F0E94F30553
:100C30008C2F6E2D402F0E94F3052196CC16DD06D9
:100C400094F7812F9B2D9C01E9010BC08A2D6C2FFD
:100C5000402F0E94F3058C2D6C2F402F0E94F3052E
:100C60002196EC16FD0694F7DF91CF911F910F911D
:100C7000FF90EF90DF90CF90BF90AF90089514BA9F
:100C800088BB80709F779BBB949A959A979895980C
:100C9000959A979A80E008951F920F920FB60F923F
:100CA00011242F938F939F9383EC82BF80916400D4
:100CB0009091650001969093650080936400809107
:100CC0006400909165008D509240E1F410926500AF
:100CD0001092640080916000909161000196909361
:100CE000610080936000809160009091610080FDC0
:100CF00003C082E090E002C081E090E09093690040
:100D00008093680080916400909165000A9731F0AB
:100D100080916400909165000B9721F482B3837FEA
:100D200082BB02C0929A9398809164009091650072
:100D30008D97B0F483E090E090936B0080936A000D
:100D400000000000000000000000000000000000A3
:100D5000000000000000000000000000000018C0BB
:100D60008091680090916900019731F482E090E0F1
:100D700090936B0080936A00809168009091690065
:100D8000029731F484E090E090936B0080936A00C6
:100D9000939A9F918F912F910F900FBE0F901F905C
:100DA00018952F923F924F925F926F927F928F92FF
:100DB0009F92AF92BF92CF92DF92EF92FF920F93EA
:100DC0001F93DF93CF93CDB7DEB729970FB6F89473
:100DD000DEBF0FBECDBF81E090E0909361008093B5
:100DE00060009093690080936800109263001092F5
:100DF000620010926700109266000E94E80590E081
:100E000016C0892F602F40E09F830E94F3050F5F7B
:100E10001F4F9F8121E00030120799F79F5F9433A5
:100E200031F4E4E5EE2EE0E0FE2E90E01AC000E0A2
:100E300010E0E7CFF701E00FF11FE491802F692F59
:100E40004E2F9F830E94F3050F5F1F4F9F81023338
:100E5000110581F7E2E3F0E0EE0EFF1E9F5F97328F
:100E600019F000E010E0E6CF84E090E068E270E086
:100E700044E050E029E230E001E010E00E9400068A
:100E800083E090E068EE70E048E050E02AEE30E069
:100E90000E94000613BE83EC82BF82E083BF81E024
:100EA00089BF939A8B9A929A8A9A899A85B78F74F6
:100EB00085BF789474E0C72ED12C24E030E03E83C7
:100EC0002D8368E2462E512C59E2652E712C882420
:100ED000992488E290E09C838B8343E0E42EF12CFC
:100EE00038E0232E312CAA24BB241A82198202C096
:100EF000C884D98485B7806485BF889585B78F7B82
:100F000085BF80916A0090916B00029709F013C130
:100F100014BA8091640090916500969587958651EA
:100F200088BB1BBA949A959A9798919895980000C7
:100F3000959A91E09BBB95980000959AE2E0EBBBF7
:100F400095980000959AF3E0FBBB95980000959A60
:100F500024E02BBB95980000959A35E03BBB959813
:100F60000000959A86E08BBB95980000959A97E0D3
:100F70009BBB95980000959AE8E0EBBB9598000024
:100F8000959AF9E0FBBB95980000959A2AE02BBB57
:100F900095980000959A3BE03BBB95980000959A88
:100FA0008CE08BBB95980000959A9DE09BBB959833
:100FB0000000959AEEE0EBBB95980000959AFFE053
:100FC000FBBB95980000959A20E12BBB95980000FB
:100FD000959A31E13BBB95980000959A82E18BBBD5
:100FE00095980000959A93E19BBB95980000959A7F
:100FF000E4E1EBBB95980000959AF5E1FBBB959871
:101000000000959A26E12BBB95980000959A37E150
:101010003BBB95980000959A88E18BBB95980000A2
:10102000959A99E19BBB95980000959A8AE18BBBB4
:1010300095980000959A8BE18BBB95980000959A46
:101040008CE18BBB95980000959A8DE18BBB9598B0
:101050000000959A8EE18BBB95980000959A8FE1E0
:101060008BBB95980000959A80E28BBB9598000009
:10107000959A81E28BBB95980000959A82E28BBB92
:1010800095980000959A83E28BBB95980000959AFD
:1010900084E28BBB95980000959A85E28BBB95986E
:1010A0000000959A86E28BBB95980000959A87E29E
:1010B0008BBB95980000959A88E28BBB95980000B1
:1010C000959A89E28BBB95980000959A8AE28BBB32
:1010D00095980000959A8BE28BBB95980000959AA5
:1010E0008CE28BBB95980000959A8DE28BBB95980E
:1010F0000000959A8EE28BBB95980000959A8FE23E
:101100008BBB95980000959A80E38BBB9598000067
:10111000959A81E38BBB95980000959A82E38BBBEF
:1011200095980000959A83E38BBB95980000959A5B
:10113000979A919ADFCE80916A0090916B00049704
:1011400009F0D8CE14BA81E090E06B817C8143E352
:1011500050E02BEE30E002E010E00E940006C601F5
:10116000B2014D815E81930100E010E00E94000613
:10117000C70168EE70E0A1012AEE30E00E9400068F
:101180008AE590E0889EF001899EF00D989EF00D12
:101190001124EC5DF74FF987E88796E11BC0E885DD
:1011A000F985E00FF11FE491802F885D692F4E2FA4
:1011B0009F830E94F3050F5F1F4F9F81063011052B
:1011C00071F7288539852A5F3F4F398728879F5FC8
:1011D000953219F000E010E0E2CF9F9B0AC032E0A8
:1011E000E316F10431F00894E108F10808942108AD
:1011F00031089E9B0AC0C101C297029730F0089443
:10120000E11CF11C0894211C311C8D819E81C29728
:1012100021F4E1E0F0E0FA83E983F2E0CF16D104B3
:1012200011F41A821982C301895E9040029748F432
:101230008114910419F008948108910891E0A92E75
:10124000B12C8B819C8101964816590631F08B8117
:101250009C8102964816590611F4AA24BB249601D3
:101260002F5F3F4F398728872E153F05F4F0C701C0
:1012700004968C159D05CCF0C301875E90400297C3
:10128000A0F4A114B10489F40894811C911C33E0EA
:101290008316910439F48B819C8144969C838B83C3
:1012A0008824992481E0A82EB12CE981FA81EF2BC2
:1012B00029F42D813E812F5F3F4F0FC089819A8194
:1012C000019719F0D986C8860AC0F6013197F987C7
:1012D000E8872D813E81215030403E832D83A1142B
:1012E000B10439F482E090E0480E591E680E791E70
:1012F0000AC091E0A916B10431F4EEEFFFEF4E0EF3
:101300005F1E6E0E7F1E88859985B2014D815E81BC
:10131000930101E010E00E940006C70168EE70E052
:10132000A1012AEE30E00E940006809164009091B5
:1013300065008C50924009F4DBCDF7CFD9CDF894FD
:02134000FFCFDD
:00000001FF
